:100000000C948C000C94B4000C94B4000C94AA05CD
:100010000C94AA050C94AA050C94B4000C94B4009A
:100020000C94B4000C94B4000C94B4000C94B40080
:100030000C94B4000C94B4000C94B4000C94B40070
:100040000C9460050C94B4000C94D9030C94B30385
:100050000C94B4000C94B4000C94B4000C94B40050
:100060000C94B1060C94B4008310951098109F1056
:10007000A610D410DB10E810F510011101110111C8
:1000800001110111011101110111011101110111E0
:1000900001110111011101110111011101110111D0
:1000A0000111011101110111831090109510981088
:1000B0009F10A610AD10BA10C71000000008000273
:1000C0000100000304070000000000000000000021
:1000D0000000230026002900000000002400270063
:1000E0002A0000000000250028002B00040404045E
:1000F00004040404020202020202030303030303D2
:1001000001020408102040800102040810200102AE
:1001100004081020B012F40C11241FBECFEFD8E059
:10012000DEBFCDBF25E0A8E1B3E001C01D92AB3C2E
:10013000B207E1F713E0A0E0B1E0E6E9F1E302C0C5
:1001400005900D92A831B107D9F710E0CBE8D0E0C7
:1001500004C02197FE010E94A116CA38D107C9F731
:100160000E940E0D0C94BE180C940000CF92DF92EA
:10017000EF92FF920F931F93CF93DF936C017A015D
:100180008B01C0E0D0E0CE15DF0581F0D8016D9184
:100190008D01D601ED91FC910190F081E02DC60119
:1001A0000995892B11F02196EECF7E01C701DF91D1
:1001B000CF911F910F91FF90EF90DF90CF90089516
:1001C000FC01538D448D252F30E0842F90E0821B5D
:1001D000930B541710F0CF96089501970895FC01E2
:1001E000918D828D981761F0828DDF01A80FB11D6E
:1001F0005D968C91928D9F5F9F73928F90E0089592
:100200008FEF9FEF0895FC01918D828D981731F04B
:10021000828DE80FF11D858D90E008958FEF9FEF9F
:100220000895FC01918D228D892F90E0805C9F4F75
:10023000821B91098F739927089581E294E00E94AF
:10024000110121E0892B09F420E0822F0895FC019F
:10025000848DDF01A80FB11DA35ABF4F2C91848D4F
:1002600090E001968F739927848FA689B7892C9384
:10027000A089B1898C91837080648C93938D848DD7
:10028000981306C00288F389E02D80818F7D8083DA
:100290000895EF92FF920F931F93CF93DF93EC019A
:1002A00081E0888F9B8D8C8D981305C0E889F98932
:1002B000808185FD26C0F62E0B8D10E00F5F1F4F4D
:1002C0000F731127E02E8C8DE8120CC00FB607FCBF
:1002D000FACFE889F989808185FFF5CFCE010E94A8
:1002E0002701F1CF8B8DFE01E80FF11DE35AFF4F7F
:1002F000F0829FB7F8940B8FEA89FB898081806236
:100300000AC09FB7F894EE89FF896083E889F9896C
:1003100080818370806480839FBF81E090E0DF9163
:10032000CF911F910F91FF90EF900895CF93DF939E
:10033000EC01888D8823C9F0EA89FB89808185FDDD
:1003400005C0A889B9898C9186FD0FC00FB607FC3E
:10035000F5CF808185FFF2CFA889B9898C9185FF7F
:10036000EDCFCE010E942701E7CFDF91CF91089515
:100370003FB7F89480910F0490911004A09111045C
:10038000B091120426B5A89B05C02F3F19F0019625
:10039000A11DB11D3FBFBA2FA92F982F8827820F0B
:1003A000911DA11DB11DBC01CD0142E0660F771F5B
:1003B000881F991F4A95D1F7089520911F04309105
:1003C00020042817390771F490911D0480911E04B0
:1003D000981741F0E0911D04F0E0E653FC4F808156
:1003E00090E008958FEF9FEF089508951F93CF93A6
:1003F000DF93DC015C968D919C915D97009739F4B9
:1004000021E030E013963C932E9312973BC0519617
:10041000ED91FC91529750962C915097322F309538
:100420001FB75E964C915E97742F727041FD609578
:10043000F8944081772311F0422B01C0432340837D
:10044000EC012197F1F748E0508160FF02C0522B88
:1004500001C053235083EC012197F1F76695415079
:1004600099F78081772319F08323808302C0282B9A
:1004700020831FBF5C968D919C915D970197F1F74A
:1004800081E090E0DF91CF911F91089520911F04AA
:10049000309120042817390761F480911E042091BF
:1004A0001D0490E0805C9F4F821B91098F739927F8
:1004B000089580E090E0089520911F043091200479
:1004C00028173907B9F490911D0480911E049817DC
:1004D00089F0E0911D04F0E0E653FC4F808120910B
:1004E0001D0430E02F5F3F4F2F73332720931D04EF
:1004F00090E008958FEF9FEF089540918003262F9D
:1005000030E0240F311D21323105DCF42091A403A9
:100510002430C9F4FC0180E090E0861758F4309153
:1005200080032191DC01A05ABC4FA30FB11D2C9375
:100530000196F3CF80918003680F6093800380E081
:10054000089581E0089582E0089508950895E09166
:100550001A0480911904E81730F4F0E0E65CFC4FCF
:10056000808190E008958FEF9FEF089590911A0495
:1005700080911904981750F4E92FF0E0E65CFC4FE5
:10058000208130E09F5F90931A0402C02FEF3FEF6D
:10059000C90108958091190490E020911A04821BEA
:1005A00091090895CF92DF92EF92FF920F931F93DC
:1005B000CF93DF937C01CB018A0120913903222361
:1005C00089F0EB016B01C40ED51ECC15DD0569F079
:1005D0006991D701ED91FC910190F081E02DC70167
:1005E0000995F3CF642F0E947D02C801DF91CF915E
:1005F0001F910F91FF90EF90DF90CF900895CF93D0
:10060000DF931F92CDB7DEB7698320913903222390
:10061000D1F020911704203240F021E030E0FC01BD
:100620003383228380E090E015C080911804E82F86
:10063000F0E0E75EFC4F998190838F5F8093180410
:100640008093170405C061E0CE0101960E947D02EF
:1006500081E090E00F90DF91CF910895089580E0C0
:1006600090E00895FC0180819181009711F00C9435
:1006700047170895EF92FF920F931F93CF93DF9345
:10068000EC01198218821B821A821D821C8261155C
:100690007105B9F17B01FB0101900020E9F7319769
:1006A0008F01061B170BB8016F5F7F4F80E090E052
:1006B0000E94D017009759F0998388831B830A837F
:1006C0002C813D81232B81F4FC0110820DC0888197
:1006D0009981009711F00E944717198218821D8294
:1006E0001C821B821A820DC01D830C83B701888176
:1006F0009981DF91CF911F910F91FF90EF900C9412
:10070000A818DF91CF911F910F91FF90EF9008955E
:100710006115710579F0FB0101900020E9F731972F
:10072000AF01461B570BDC01ED91FC910280F38178
:10073000E02D099480E090E008950F931F93CF93EC
:10074000DF93EC010E9488038C0160E571E0CE012B
:100750000E948803800F911FDF91CF911F910F910D
:1007600008950C9488031F920F920FB60F921124D4
:100770002F933F934F935F936F937F938F939F93A9
:10078000AF93BF93EF93FF9381E294E00E94270120
:10079000FF91EF91BF91AF919F918F917F916F9159
:1007A0005F914F913F912F910F900FBE0F901F902F
:1007B00018951F920F920FB60F9211242F938F93BB
:1007C0009F93EF93FF93E0913104F0913204808185
:1007D000E0913704F091380482FD12C0908180913D
:1007E0003A048F5F8F7320913B04821751F0E091A0
:1007F0003A04F0E0EF5DFB4F958F80933A0401C01F
:100800008081FF91EF919F918F912F910F900FBE5B
:100810000F901F90189590E0FC01E654FF4F249133
:10082000FC01E050FF4F3491FC01E451FF4FE49193
:10083000EE2309F43CC0222339F1233091F038F43F
:100840002130A9F0223001F584B58F7D12C0273008
:1008500091F02830A1F02430B9F4809180008F7D90
:1008600003C0809180008F77809380000DC084B595
:100870008F7784BD09C08091B0008F7703C08091CD
:10088000B0008F7D8093B000F0E0EE0FFF1FEE51BF
:10089000FF4FA591B4919FB7F894611104C08C915A
:1008A0003095382302C0EC913E2B3C939FBF0895B6
:1008B0008F929F92AF92BF92CF92DF92EF92FF9270
:1008C0006B017C010E94B8014B015C01C114D10491
:1008D000E104F104F1F00E94B801DC01CB018819B8
:1008E0009909AA09BB09883E9340A105B10570F397
:1008F00021E0C21AD108E108F10888EE880E83E0F1
:10090000981EA11CB11CC114D104E104F10419F713
:10091000DDCFFF90EF90DF90CF90BF90AF909F9092
:100920008F9008952FB7F89460910B0470910C0488
:1009300080910D0490910E042FBF08954F925F9205
:100940006F927F928F929F92AF92BF92CF92DF92DF
:10095000EF92FF920F931F93CF93DF93FB010190D0
:100960000020E9F731975F01A61AB70AD9F18B0188
:10097000EC01E12CF12C0E949204688779878A8728
:100980009B87E881F9810284F385E02DCE010995EA
:1009900097FF18C00E949204488459846A847B841B
:1009A000DC01CB0184199509A609B7094C805D804B
:1009B0006E807F8084159505A605B70510F32FEF8F
:1009C0003FEF12C0F801EE0DFF1D2081022E000C3A
:1009D000330B8217930769F497012F5F3F4FA216DD
:1009E000B306C9F520E030E081E0232BB1F180E0CF
:1009F00034C0E114F10469F13F019701A9014150AC
:100A00005109F30162913F01062E000C770B861706
:100A10009707E1F441155105F1F06801D701A41BD6
:100A2000B50BA00FB11F60E070E0F60181906F017F
:100A30009D90891429F06417750769F09A01DECF3B
:100A40006F5F7F4F6417750780F3F5CF4115510530
:100A5000A9F720E030E079018ECFDF91CF911F918F
:100A60000F91FF90EF90DF90CF90BF90AF909F904D
:100A70008F907F906F905F904F90089581E294E007
:100A80000E94110118161906A4F463E571E081E2D1
:100A900094E00E949E04882339F081E090E09093D6
:100AA0001C0480931B04089510921C0410921B04D4
:100AB000E5CF08950E941D0181110C943E05089513
:100AC0001F920F920FB60F9211242F933F938F9383
:100AD0009F93AF93BF9380910B0490910C04A091CE
:100AE0000D04B0910E0430910A0423E0230F2D373A
:100AF00020F40196A11DB11D05C026E8230F029622
:100B0000A11DB11D20930A0480930B0490930C0443
:100B1000A0930D04B0930E0480910F0490911004E3
:100B2000A0911104B09112040196A11DB11D8093F2
:100B30000F0490931004A0931104B0931204BF917A
:100B4000AF919F918F913F912F910F900FBE0F907A
:100B50001F9018951F920F920FB60F9211242F938A
:100B60003F934F935F936F937F938F939F93AF9335
:100B7000BF93EF93FF93E0911F04F091200430970F
:100B800009F451C0968DA685B785858591FF04C06F
:100B90009C91892329F447C09C91892309F043C083
:100BA000A389B4899C918589809589238C938689B2
:100BB00097890197F1F7608D718DA685B785558569
:100BC00038E020E0CB010197F1F7822F90E0959576
:100BD0008795282F4C91452309F02068315091F7D3
:100BE000868D81FD209580911E0490E001968F7383
:100BF000992730911D04381749F0A0911E04B0E0E8
:100C0000A653BC4F2C9380931E0403C0868D816035
:100C1000868F828D938D0197F1F7A389B4899C917A
:100C20008589892B8C93FF91EF91BF91AF919F9113
:100C30008F917F916F915F914F913F912F910F9085
:100C40000FBE0F901F901895E0911F04F0912004A3
:100C5000E817F90769F4A389B4899C91858980957F
:100C600089238C931092200410921F0481E0089530
:100C700080E008951092A40381E08093A60310926F
:100C8000A50361E082E10E940B0461E083E10E9420
:100C90000B04E9EBF0E080818E7F808380818D7F83
:100CA000808388E48093B80085E48093BC00089535
:100CB000CF93DF9391E090935F038823B9F0C091C5
:100CC000B800D091BA008091BC008A7B8093BC00B0
:100CD00060E082E10E940B0460E083E10E940B046B
:100CE0000E943A06D093BA00C093B800DF91CF912A
:100CF000089585ED8093BC0080915B0390915C0327
:100D0000A0915D03B0915E030796A11DB11D23E084
:100D1000B695A795979587952A95D1F72091BC0010
:100D200024FF1CC040915B0350915C0360915D0304
:100D300070915E03452B462B472B81F30097A1054D
:100D4000B10541F02AE22A95F1F700C00197A10907
:100D5000B109E4CF80915A030C9458061092A40371
:100D600008951F920F920FB60F9211242F933F9365
:100D70004F935F936F937F938F939F93AF93BF93A3
:100D8000EF93FF938091B900887F803609F49CC06F
:100D900068F5883209F45BC090F4803109F454C0DE
:100DA00038F4882309F4F6C0883009F44DC0F6C041
:100DB000883109F44CC0803209F45DC0EFC0803442
:100DC00009F468C048F4803309F455C0883309F049
:100DD000E5C08093A303D8C0803509F44FC088359F
:100DE00009F45DC0883409F0D9C0D6C0883909F447
:100DF000C7C0A8F4883709F467C038F4883609F406
:100E000063C0803709F460C0C9C0883809F4B8C02D
:100E1000803909F45FC0803809F0C0C05BC0803BF6
:100E200009F486C038F4803A09F466C0883A09F4B7
:100E30007FC0B4C0803C09F4A7C0883C09F4A4C0BA
:100E4000883B09F48AC0AAC08091C90310C0909160
:100E5000C8038091C703981770F5E091C80381E03B
:100E60008E0F8093C803F0E0E955FC4F808180939A
:100E7000BB0085EC86C08093A3038EC0E091C803BD
:100E800081E08E0F8093C8038091BB00F0E0E955AC
:100E9000FC4F80839091C8038091C7036EC0E0919E
:100EA000C80381E08E0F8093C8038091BB00F0E0FF
:100EB000E955FC4F80838091A60381116DC081E0CC
:100EC0008093A50384EA61C083E08093A403109219
:100ED000A203CFCF8091A203803208F051C0E091ED
:100EE000A20381E08E0F8093A2038091BB00F0E00B
:100EF000EE57FC4F8083BDCF85EC8093BC001092F1
:100F0000A4038091A203803230F4E091A203F0E0C8
:100F1000EE57FC4F10826091A20370E0E091130441
:100F2000F091140482E893E009951092A20336C070
:100F300084E08093A4031092810310928003E091D7
:100F40001504F0911604099580918003811105C064
:100F500081E08093800310926003E091810381E03F
:100F60008E0F80938103F0E0E05AFC4F80818093E4
:100F7000BB009091810380918003981708F479CF8A
:100F800085E88093BC000AC085EC8093BC00109279
:100F9000A40304C01092A3030E947906FF91EF916D
:100FA000BF91AF919F918F917F916F915F914F9181
:100FB0003F912F910F900FBE0F901F901895CF92D9
:100FC000DF92EF92FF920F931F93CF93DF93FC0179
:100FD000C48121E020933903C093180310921804B0
:100FE000109217048385682B8EEB94E00E94FF0219
:100FF000D0911704D13208F0BAC00E94B8016B0139
:101000007C018091A403882311F180915B0390916E
:101010005C03A0915D03B0915E03892B8A2B8B2B1F
:1010200081F30E94B80100915B0310915C03209151
:101030005D0330915E03DC01CB018C199D09AE0983
:10104000BF09081719072A073B07D8F681C082E0B5
:101050008093A40381E08093A6038FEF8093A30382
:101060001092C803D093C703A9E1B3E0E7EAF3E025
:1010700080E0D81721F09D9191938F5FFACF109265
:10108000C9038091C903CC0FC82BC093C9038091B9
:10109000A503813089F51092A5030E94B8016B0168
:1010A0007C018091C9038093BB0080915B03909188
:1010B0005C03A0915D03B0915E03892B8A2B8B2B7F
:1010C000A9F00E94B80100915B0310915C0320918C
:1010D0005D0330915E03DC01CB018C199D09AE09E3
:1010E000BF09081719072A073B0790F18091BC0038
:1010F00083FDD7CF85EC01C085EE8093BC000E94B4
:10110000B8016B017C018091A403823031F580919C
:101110005B0390915C03A0915D03B0915E03892B0A
:101120008A2B8B2B81F30E94B80100915B031091F5
:101130005C0320915D0330915E03DC01CB018C19CF
:101140009D09AE09BF09081719072A073B07D8F6FA
:1011500080915A030E9458060AC08091A3038F3FD2
:1011600031F08091A303803211F08091A30310929B
:1011700018041092170410923903DF91CF911F9138
:101180000F91FF90EF90DF90CF9008950F931F93F2
:10119000CF938C01C62F0E94DF076C2F6460C801BB
:1011A0000E94DF076C2F6B7FC8010E94DF0783EC72
:1011B00090E00197F1F7CF911F910F9108950F9350
:1011C0001F93CF93DF938C01C62FD42F607F642BA6
:1011D0000E94C60880E1C89FB00111246D2BC80190
:1011E000DF91CF911F910F910C94C60841E00E94AE
:1011F000DF0881E090E00895CF93DF93EC018A85CA
:101200009B85AC85BD858E839F83A887B9870E9407
:1012100092046A837B838C839D8381E089838883A6
:10122000DF91CF910895CF93DF93EC018E819F8161
:10123000A885B9858A839B83AC83BD830E94920471
:101240006A877B878C879D8781E089838883DF918C
:10125000CF9108952F923F924F925F926F927F921B
:101260008F929F92AF92BF92CF92DF92EF92FF92B6
:101270000F931F93CF93DF93D82FC92F8B010E9419
:10128000A61324E630E040E050E00E947F164901BA
:101290005A019B01AC0160E876E988E990E00E9480
:1012A0006F166B017C01F80191828082ED2FFC2F7B
:1012B0002191822F022E000C990BC0970A97C0F340
:1012C0002E3239F51F0180E8882E86E9982E88E9AC
:1012D000A82EB12C9AE0492E512C612C712CF101D1
:1012E000C1911F010C2E000CDD0BE097CA30D10517
:1012F00080F4C501B401A30192010E947F16490147
:101300005A01DE010E94A716C60ED71EE81EF91E5E
:10131000E6CFA5E0B0E0A70196010E9406156F5F39
:101320007F4F8F4F9F4F23E030E040E050E00E941E
:101330007F16F80122833383448355831682DF911D
:10134000CF911F910F91FF90EF90DF90CF90BF90C2
:10135000AF909F908F907F906F905F904F903F9055
:101360002F900895FF920F931F93CF93DF93EC017B
:10137000F8802DE2F21201C02196CE010E94A61340
:101380009B01AC01A4E6B0E00E940615FE01499164
:10139000242F042E000C330B205331092A30310541
:1013A000A8F34E3241F52181022E000C330B20535D
:1013B00031092A303105F8F44AE0429F8001439F09
:1013C000100D1124012E000C220B330B600F711F26
:1013D000821F931F0281002E000C110B0053110974
:1013E0000A30110540F4012E000C220B330B600F64
:1013F000711F821F931F2DE2F21207C090958095F6
:10140000709561957F4F8F4F9F4FDF91CF911F91C7
:101410000F91FF900895CF92DF92FF920F931F9349
:10142000CF93DF93EC01F62E142F1B821A8288EEE5
:1014300093E0A0E0B0E08C839D83AE83BF8382E124
:1014400091E0998388831F8A1E8A198E188E1B8EBD
:101450001A8E1D8E1C8E6E8D6E7F6D7F6E8F6695C3
:10146000617081E06827842F0E940B04412F50E0B7
:101470009A0120503F4FF901649144515F4FFA01A6
:101480008491882399F090E0880F991FFC01E8521D
:10149000FF4FA591B491FC01EE51FF4F85919491BE
:1014A0009FB7F8948C91862B8C939FBFF901249160
:1014B000288BFA014491E42FF0E0EE0FFF1FEE516C
:1014C000FF4F859194919A8B898B0F2D10E0C80165
:1014D00080509F4F6C01FC01249104511F4FF80173
:1014E00084918823C9F090E0880F991FFC01E8528D
:1014F000FF4FA591B491FC01EE51FF4F45915491DE
:101500003FB7F8949C91822F809598239C93FA0181
:101510009081892380833FBF8E8D81FD04C061E06F
:101520008F2D0E940B04FC86F601C490CD86F80135
:101530000491E02FF0E0EE0FFF1FE253FF4F859183
:1015400094919F878E87DF91CF911F910F91FF908C
:10155000DF90CF90089540E061E08BEB95E00E9432
:10156000DF088BE39FE10197F1F708952F923F92F7
:101570004F925F926F927F928F929F92AF92BF92A3
:10158000CF92DF92EF92FF920F931F93CF93DF934F
:10159000CDB7DEB7A4970FB6F894DEBF0FBECDBFB0
:1015A0004B015C01F42E9B01AC010E946A1688235A
:1015B00019F06BE073E027C024013501E89477F857
:1015C0002FEF3FEF4FE75FE7C301B2010E946A16BA
:1015D00081110DC02FEF3FEF4FE75FE7C301B2016D
:1015E0000E94E21318161CF46FE073E00CC02FEF9A
:1015F0003FEF4FE75FE4C501B4010E94651618167E
:101600003CF463E173E081E294E00E948803BCC093
:101610002FEF3FEF4FE75FECC501B4010E94E213EB
:1016200087FDEFCF20E030E0A901C501B4010E94A1
:10163000E21387FF0BC06DE281E294E00E94490152
:101640003C01B7FAB094B7F8B09402C0612C712C89
:1016500010E060E070E080E09FE3F11641F020E0F0
:1016600030E040E251E40E94C4151F5FF6CFA501AF
:1016700094010E9458154B015C010E9436166AA322
:10168000C72ED82EE92E19A2262F372F482F592FD3
:101690008E010F5D1F4F0BA31CA39AE0292E312C46
:1016A000412C512CCA01B901A20191010E947F165F
:1016B000605DF80162938F012115310541055105E7
:1016C00089F7BF0181E294E00E9488038301080F3B
:1016D000191FFF2009F457C06AA17C2D8D2D9E2D66
:1016E0000E94E7139B01AC01C501B4010E9457158C
:1016F0004B015C016EE281E294E00E944901080F17
:10170000191F8AE0282E312C412C512C20E030E08A
:1017100040E251E4C501B4010E9448144B015C0150
:101720000E9436169B0140E050E019A2CBA0DCA03D
:10173000762E3AA3642EE52ECA01B901A2019101C9
:101740000E947F16605DF60162936F0121153105DD
:101750004105510589F7BF0181E294E00E948803A9
:10176000080F191F672D7AA1862D9E2D0E94E71361
:101770009B01AC01C501B4010E9457154B015C01EE
:10178000FA94F110C3CFC801A4960FB6F894DEBF47
:101790000FBECDBFDF91CF911F910F91FF90EF90C2
:1017A000DF90CF90BF90AF909F908F907F906F9081
:1017B0005F904F903F902F900895CF93DF93CDB7D8
:1017C000DEB728970FB6F894DEBF0FBECDBF98E006
:1017D000E6E0F1E0DE01119601900D929A95E1F7B5
:1017E0009091C305961710F46FEF690FFE013196C3
:1017F000E60FF11DE60FF11D6081680F606840E0A3
:101800008BEB95E028960FB6F894DEBF0FBECDBFE8
:10181000DF91CF910C94DF08CF93DF93823028F0D3
:101820009091C00598609093C0058093C30562E3D2
:1018300070E080E090E00E9458046091C6058BEB58
:1018400095E00E94DF0768EE73E080E090E00E9480
:10185000580460E38BEB95E00E94C608CBE4D6E425
:10186000CE010197F1F760E38BEB95E00E94C6088B
:101870002197F1F760E38BEB95E00E94C60883E5C2
:1018800092E00197F1F760E28BEB95E00E94C608C9
:101890006091C005606240E08BEB95E00E94DF083C
:1018A00084E08093C10540E06CE08BEB95E00E9402
:1018B000DF080E94AB0A82E08093C20540E066E048
:1018C0008BEB95E00E94DF0840E062E08BEB95E057
:1018D0000E94DF088BE39FE10197F1F7DF91CF9141
:1018E0000895CF93DF93FC01138E128E118E108E0C
:1018F000178A168A8DE991E0958F848F94859631A9
:1019000008F04EC02DEB30E0378B268B2BE931E011
:10191000318F208F2CE231E0338F228F309168009D
:10192000983058F021E09E3008F420E091E0892FB3
:1019300001C0880F2A95EAF701C084E0832B8093C9
:1019400068009485983038F09E3040F0963148F029
:1019500020E030E008C02DE630E005C02BE630E0A6
:1019600002C02CE630E0348B238B983030F481E0D9
:1019700001C0880F9A95EAF70EC0292F30E09E30FB
:1019800018F42850310902C02E50310981E001C0FD
:10199000880F2A95EAF7858B848D958D0197F1F74D
:1019A000828D938D892BE9F080911F049091200402
:1019B000E817F907B1F0EF01009711F00E94240633
:1019C0008E8D8E7F8E8F10921E0410921D04D093E8
:1019D0002004C0931F04EB89FC8990818D89892B99
:1019E0008083DF91CF910895CF93DF938AEC94E0C9
:1019F0000E943203C2E1D1E0D093D104C093D0045D
:101A000080ED94E00E942406D093F004C093EF048C
:101A10008FEE94E0DF91CF910C942406CF93DF9367
:101A200000D000D000D0CDB7DEB7789484B5826006
:101A300084BD84B5816084BD85B5826085BD85B572
:101A4000816085BD80916E00816080936E001092F0
:101A5000810080918100826080938100809181006B
:101A600081608093810080918000816080938000FC
:101A70008091B10084608093B1008091B00081605A
:101A80008093B00080917A00846080937A00809186
:101A90007A00826080937A0080917A0081608093DE
:101AA0007A0080917A00806880937A001092C10059
:101AB000E0913104F091320482E08083E0912D04C2
:101AC000F0912E041082E0912F04F09130048FECFD
:101AD000808310923904E0913504F091360486E059
:101AE0008083E0913304F0913404808180618083AD
:101AF000E0913304F0913404808188608083E09128
:101B00003304F0913404808180688083E091330451
:101B1000F091340480818F7D80838FEE94E00E9469
:101B2000710C80ED94E00E94710C10921A041092D6
:101B3000190410921804109217040E943A0685EABC
:101B400092E0909316048093150486EA92E09093B5
:101B50001404809313041092C0058091C5050E945F
:101B60000C0C88E08093C60560E08BEB95E00E944A
:101B7000DF0782E00E940C0C60E081E00E94DD0B38
:101B800066E571E08BEB95E00E94B10361E080E0D7
:101B90000E94DD0B65E671E08BEB95E00E94B103DE
:101BA00060ED77E080E090E00E9458040E94AB0A6C
:101BB00066E771E08BEB95E00E94B10311E080EDE8
:101BC00094E00E9446021816190654F467E871E082
:101BD00081E294E00E949E04882389F310E0EFCF15
:101BE00068EE73E080E090E00E9458041111E6CFA7
:101BF0000E94AB0A6AE871E08BEB95E00E94B103AA
:101C000068EE73E080E090E00E9458040E94AB0A06
:101C10006DE971E08BEB95E00E94B1036CEA71E035
:101C200080ED94E00E949D0311E080ED94E00E941D
:101C300046021816190654F467E871E081E294E050
:101C40000E949E04882389F310E0EFCF68EE73E0D2
:101C500080E090E00E9458041111E0CF0E94AB0A8E
:101C600061EB71E08BEB95E00E94B10368EE73E0ED
:101C700080E090E00E9458040E94AB0A6AEB71E099
:101C80008BEB95E00E94B1036CEC71E080ED94E089
:101C90000E949D0311E080ED94E00E944602181618
:101CA000190654F465ED71E080ED94E00E949E0405
:101CB000882389F310E0EFCF68EE73E080E090E0D6
:101CC0000E9458041111E0CF0E94AB0A62EE71E04D
:101CD0008BEB95E00E94B10368EE73E080E090E04A
:101CE0000E9458040E94AB0A0E94AB0A62EF71E0A6
:101CF00080ED94E00E949D0364E072E08BEB95E040
:101D00000E94B10361E080E00E94DD0B65E172E0BA
:101D10008BEB95E00E94B10360ED77E080E090E00E
:101D20000E9458040E94AB0A66E272E08BEB95E0D9
:101D30000E94B10361E080E00E94DD0B66E372E087
:101D40008BEB95E00E94B10360ED77E080E090E0DE
:101D50000E9458040E94AB0A63E472E08BEB95E0AA
:101D60000E94B10310921C0410921B04FF24F394F0
:101D700082E0E82E01E00E943E0580911B049091D4
:101D80001C04892B09F4E9C38FEE94E00E944602FB
:101D90001816190694F78FEE94E00E945C02182F33
:101DA0008091AB059091AC05A091AD05B091AE05C9
:101DB0000196A11DB11D8093AB059093AC05A09336
:101DC000AD05B093AE05143209F45AC2E091A505F1
:101DD000153234F41A3071F01D3009F05EC20AC0B9
:101DE0001A3241F01C3209F058C2809192058127C5
:101DF00080939205EF3008F035C2F0E0EC56FA4FD0
:101E0000108280919305882309F41CC120919405C8
:101E10003FEB320F822F022E000C990B363010F45C
:101E2000C79707C02156263018F48755910901C07D
:101E3000C097282F2295207F309195054FEB430FB7
:101E4000832F032E000C990B463010F4C79707C060
:101E50003156363018F48755910901C0C097820F6A
:101E6000909192058913DAC08091B7059091B805D9
:101E7000A091B905B091BA050196A11DB11D80933D
:101E8000B7059093B805A093B905B093BA058091B2
:101E9000A605882399F08091AF059091B005A09197
:101EA000B105B091B2050196A11DB11D8093AF059A
:101EB0009093B005A093B105B093B205D090A3055F
:101EC000DD20B9F121E0D21282C080E395E00E94CA
:101ED00013098EE395E00E9413098091A6058823DB
:101EE00009F475C087E0EEE1F5E0A0E1B5E001900E
:101EF0000D928A95E1F787E0E5E2F5E0A7E1B5E02C
:101F000001900D928A95E1F70E94920460932C054E
:101F100070932D0580932E0590932F05D0920F0579
:101F2000D0920E058CE495E00E94FC088AE595E0CD
:101F30004CC08EE395E00E9413098091A60588238A
:101F400021F187E0EEE1F5E0A0E1B5E001900D922E
:101F50008A95E1F787E0E5E2F5E0A7E1B5E00190D9
:101F60000D928A95E1F70E94920460932C0570937C
:101F70002D0580932E0590932F0500930F05009358
:101F80000E0588E695E00E94FC08809180059091FE
:101F90008105A0918205B091830580937C05909383
:101FA0007D05A0937E05B0937F050E949204609307
:101FB00078057093790580937A0590937B0500935B
:101FC00077050093760584E895E00E94FC08C090B0
:101FD000A905D090AA05C114D10409F443C1E09128
:101FE000A905F091AA0566A177A1F60186A197A19E
:101FF0000E949F18892B09F035C1B601C601409691
:102000000E94A8180E949204F60160A371A382A303
:1020100093A3F5A2F4A2C2A4D3A4DDCF8091B3050B
:102020009091B405A091B505B091B6050196A11D9A
:10203000B11D8093B3059093B405A093B505B093FB
:10204000B60510C19091A405911145C060E572E0FC
:1020500084E995E00E949F18892B41F066E572E0C3
:1020600084E995E00E949F18892B19F40093A30539
:1020700015C06CE572E084E995E00E949F18892BF9
:1020800041F062E672E084E995E00E949F18892B96
:1020900019F41092A30502C0E092A3058091A70550
:1020A0009091A8059093AA058093A905C090A905D1
:1020B000D090AA05C114D10409F4D4C064E975E034
:1020C000F60186A197A10E949F1897FFC5C0F6014F
:1020D00082A593A5E7CFE091A305E23009F491C072
:1020E00080919405882309F48CC020E2E29FF001DE
:1020F0001124E92B3197E932F10508F082C0EC5C3C
:10210000FF4F0C94A11684E995E00E94B2096093F8
:10211000440570934505809346059093470571C02B
:1021200091E0813409F043C043C06EE175E009C01D
:1021300091E0833509F090E09093240562C065E258
:1021400075E084E995E00E942A095BC091E087353B
:1021500009F090E090932B0554C084E995E00E942B
:10216000B209609356057093570580935805909374
:10217000590547C084E995E00E94B209609364055F
:102180007093650580936605909367053AC084E96E
:1021900095E00E94A61360933605709337058093EF
:1021A0003805909339052DC091E081330CF490E00F
:1021B0009093A60526C084E995E00E94A61360933B
:1021C000800570938105809382059093830519C0E3
:1021D00084E995E00E94B20960938E0570938F05A3
:1021E00080939005909391050CC084E995E00E943E
:1021F000B209609372057093730580937405909390
:102200007505C090A905D090AA05C114D10451F15B
:10221000E091A905F091AA0566A177A1F60186A132
:1022200097A10E949F18892BE9F4F60120A531A5FA
:102230008091A40590E082179307A4F0281739072E
:1022400039F440E150E064E975E0C6010E94AF183E
:10225000F601C2A4D3A4D9CF892B21F01092AA05EC
:102260001092A9058091A4058F5F8093A405109218
:10227000A50581E01A3209F080E08093930520C023
:102280001092A5051092A40510929205E092A30564
:10229000109293051092A60513C0EE3040F481E031
:1022A0008E0F8093A505F0E0EC56FA4F10838091D5
:1022B0009305811105C0809192051827109392050E
:1022C00080910F05882309F440C110921C041092DC
:1022D0001B0468E672E080ED94E00E949D0360E9D3
:1022E00071E080E090E00E94580462E772E080EDC7
:1022F00094E00E949D0360E971E080E090E00E941C
:1023000058046BE872E0CE0101960E943A034D81B9
:102310005E8169817A8181E294E00E94B60068EC76
:1023200070E080E090E00E945804CE0101960E9487
:10233000320364E771E081E294E00E949D0361EA68
:1023400072E0CE0101960E943A034D815E8169815F
:102350007A8181E294E00E94B60068EC70E080E04F
:1023600090E00E945804CE0101960E94320364E777
:1023700071E081E294E00E949D0362EC72E081E2F0
:1023800094E00E94B10310920F05609112057091C4
:10239000130580911405909115050E94E71328E21A
:1023A0003BE64EE65EE40E94C4154B015C01609181
:1023B00010057091110580E090E00E94E7139B01E9
:1023C000AC01C501B4010E945815209116052111D8
:1023D000905846E00E94B60A6DEC72E081E294E00B
:1023E0000E94B10310920F056091190570911A05B2
:1023F00080911B0590911C050E94E71328E23BE6A3
:102400004EE65EE40E94C4154B015C016091170525
:102410007091180580E090E00E94E7139B01AC01E9
:10242000C501B4010E94581520911D052111905835
:1024300046E00E94B60A60E571E081E294E00E9405
:1024400088036BED72E081E294E00E94B103109288
:102450000F056091120570911305809114059091FC
:1024600015050E94E71328E23BE64EE65EE40E9473
:10247000C4154B015C01609110057091110580E05D
:1024800090E00E94E7139B01AC01C501B4010E94DA
:102490005815209116052111905846E00E94B60A61
:1024A0006CE281E294E00E94490110920F05609174
:1024B000190570911A0580911B0590911C050E94C9
:1024C000E71328E23BE64EE65EE40E94C4154B01AA
:1024D0005C01609117057091180580E090E00E9402
:1024E000E7139B01AC01C501B4010E94581520916E
:1024F0001D052111905846E00E94B60A69EF72E06E
:1025000081E294E00E94B1036AE181E294E00E94DA
:10251000490160ED77E080E090E00E9458040E945D
:10252000AB0A6EEF72E08BEB95E00E94B10360EDB9
:1025300077E080E090E00E9458040E94AB0A63E4D8
:1025400072E08BEB95E00E94B10380911B049091A7
:102550001C04892B09F018CC10CC0E945A050BCC16
:10256000E1E2F4E01382128288EE93E0A0E0B0E0B2
:1025700084839583A683B78324E231E0318320836B
:1025800025EC30E03587248724EC30E03787268738
:1025900020EC30E0318B208B21EC30E0338B228B30
:1025A00022EC30E0358B248B26EC30E0378B268B09
:1025B000118E128E138E148EEEEBF4E013821282C3
:1025C00084839583A683B78386E391E09183808398
:1025D000EBEBF5E01382128288E491E09183808333
:1025E00087E2848384E1818784E082871386EEE03A
:1025F000F5E01082118213821282148215821682F3
:102600001782108612861186138614861586168602
:102610001786118A108A128A138A148A158A168AD2
:10262000108E178A118E128E138E148E158E12A292
:1026300013A214A215A216A217A210AA11AA12AAD6
:1026400013AA14AA15AA16AE17AE1092520510922C
:102650005305109254051092550510925A05109288
:102660005B05109260051092610510926205109250
:102670006305109268051092690510926E0510921C
:102680006F051092700510927105109276051092E8
:10269000770510927C0510927D0510927E051092B0
:1026A0007F05109284051092850510928A0510927C
:1026B0008B0510928C0510928D0510929205109248
:1026C000930582E08093A3051092A4051092A505BE
:1026D0001092A6051092A8051092A7051092AA05BF
:1026E0001092A9051092AB051092AC051092AD05A1
:1026F0001092AE051092AF051092B0051092B10580
:102700001092B2051092B3051092B4051092B5055F
:102710001092B6051092B7051092B8051092B9053F
:102720001092BA051092940543E064E08FEE94E0B5
:102730000E940B0A46E065E080ED94E00E940B0ADF
:1027400062E571E08AEC94E00C943A031F93FC017B
:1027500099278827BC01E89411911032E9F31930C8
:1027600010F01E30C8F31B3251F01D3249F468944A
:1027700006C00E94CD13610F711D811D911D119125
:1027800010531A30B0F33EF4909580957095619592
:102790007F4F8F4F9F4F1F910895592F482F372FED
:1027A000262F660F771F881F991F660F771F881FB8
:1027B000991F620F731F841F951F660F771F881F55
:1027C000991F08950E94241408F481E00895E89464
:1027D00009C097FB3EF490958095709561957F4F69
:1027E0008F4F9F4F9923A9F0F92F96E9BB27939517
:1027F000F695879577956795B795F111F8CFFAF427
:10280000BB0F11F460FF1BC06F5F7F4F8F4F9F4F57
:1028100016C0882311F096E911C0772321F09EE8B5
:10282000872F762F05C0662371F096E8862F70E01B
:1028300060E02AF09A95660F771F881FDAF7880FF5
:102840009695879597F90895990F0008550FAA0B4B
:10285000E0E8FEEF16161706E807F907C0F01216B3
:102860001306E407F50798F0621B730B840B950BB6
:1028700039F40A2661F0232B242B252B21F408950B
:102880000A2609F4A140A6958FEF811D811D0895A8
:102890000E945B140C94CC140E94BE1438F00E9469
:1028A000C51420F0952311F00C94B5140C94BB14AE
:1028B00011240C9400150E94DD1470F3959FC1F350
:1028C000950F50E0551F629FF001729FBB27F00DDE
:1028D000B11D639FAA27F00DB11DAA1F649F662733
:1028E000B00DA11D661F829F2227B00DA11D621F82
:1028F000739FB00DA11D621F839FA00D611D221F3C
:10290000749F3327A00D611D231F849F600D211D1F
:10291000822F762F6A2F11249F5750409AF0F1F0A2
:1029200088234AF0EE0FFF1FBB1F661F771F881F0B
:1029300091505040A9F79E3F510580F00C94B5147A
:102940000C9400155F3FE4F3983ED4F38695779599
:102950006795B795F795E7959F5FC1F7FE2B880FB1
:10296000911D9695879597F9089597F99F6780E847
:1029700070E060E008959FEF80EC089500240A94D1
:102980001616170618060906089500240A9412164A
:102990001306140605060895092E0394000C11F47D
:1029A000882352F0BB0F40F4BF2B11F460FF04C02A
:1029B0006F5F7F4F8F4F9F4F089557FD9058440F83
:1029C000551F59F05F3F71F04795880F97FB991F8E
:1029D00061F09F3F79F0879508951216130614064B
:1029E000551FF2CF4695F1DF08C0161617061806D8
:1029F000991FF1CF86957105610508940895E894B3
:102A0000BB2766277727CB0197F908950E944815C1
:102A1000A59F900DB49F900DA49F800D911D112432
:102A200008952F923F924F925F926F927F928F9272
:102A30009F92AF92BF92CF92DF92EF92FF920F934D
:102A40001F93CF93DF93CDB7DEB7CA1BDB0B0FB657
:102A5000F894DEBF0FBECDBF09942A883988488814
:102A60005F846E847D848C849B84AA84B984C884AA
:102A7000DF80EE80FD800C811B81AA81B981CE0FA1
:102A8000D11D0FB6F894DEBF0FBECDBFED01089586
:102A9000A29FB001B39FC001A39F700D811D11249F
:102AA000911DB29F700D811D1124911D08955058E4
:102AB000BB27AA270E946F150C94CC140E94BE1449
:102AC00038F00E94C51420F039F49F3F19F426F421
:102AD0000C94BB140EF4E095E7FB0C94B514E92FAD
:102AE0000E94DD1458F3BA1762077307840795072D
:102AF00020F079F4A6F50C94FF140EF4E0950B2E5B
:102B0000BA2FA02D0B01B90190010C01CA01A0013F
:102B10001124FF27591B99F0593F50F4503E68F19A
:102B20001A16F040A22F232F342F4427585FF3CFDB
:102B3000469537952795A795F0405395C9F77EF4AC
:102B40001F16BA0B620B730B840BBAF09150A1F0F5
:102B5000FF0FBB1F661F771F881FC2F70EC0BA0F7B
:102B6000621F731F841F48F4879577956795B79503
:102B7000F7959E3F08F0B0CF9395880F08F09927FE
:102B8000EE0F9795879508950E94D8150C94CC1454
:102B90000E94C51458F00E94BE1440F029F45F3F13
:102BA00029F00C94B51451110C9400150C94BB141D
:102BB0000E94DD1468F39923B1F3552391F3951B1B
:102BC000550BBB27AA2762177307840738F09F5F4E
:102BD0005F4F220F331F441FAA1FA9F335D00E2EBB
:102BE0003AF0E0E832D091505040E695001CCAF728
:102BF0002BD0FE2F29D0660F771F881FBB1F2617EB
:102C000037074807AB07B0E809F0BB0B802DBF01C1
:102C1000FF2793585F4F3AF09E3F510578F00C9490
:102C2000B5140C9400155F3FE4F3983ED4F38695F9
:102C300077956795B795F7959F5FC9F7880F911DB1
:102C40009695879597F90895E1E0660F771F881F9D
:102C5000BB1F621773078407BA0720F0621B730B50
:102C6000840BBA0BEE1F88F7E09508950E94E514D7
:102C700088F09F5798F0B92F9927B751B0F0E1F03D
:102C8000660F771F881F991F1AF0BA95C9F714C0ED
:102C9000B13091F00E94FF14B1E008950C94FF143C
:102CA000672F782F8827B85F39F0B93FCCF3869526
:102CB00077956795B395D9F73EF490958095709583
:102CC00061957F4F8F4F9F4F08950E94241408F401
:102CD0008FEF08950E942414880B990B0895DB014F
:102CE0008F939F930E940615BF91AF91A29F800D75
:102CF000911DA39F900DB29F900D11240895A1E204
:102D00001A2EAA1BBB1BFD010DC0AA1FBB1FEE1F65
:102D1000FF1FA217B307E407F50720F0A21BB30BB0
:102D2000E40BF50B661F771F881F991F1A9469F72C
:102D300060957095809590959B01AC01BD01CF0188
:102D40000895EE0FFF1F0590F491E02D0994B7FF51
:102D50000C9406150E940615821B930B08950F9381
:102D60001F93CF93DF938230910510F482E090E0BF
:102D7000E091C905F091CA0520E030E0A0E0B0E0A4
:102D8000309719F140815181028113814817590709
:102D9000C8F08417950769F4109731F012960C93D8
:102DA000129713961C9327C00093C9051093CA0568
:102DB00022C02115310519F04217530718F49A0162
:102DC000BD01EF01DF01F801DBCF21153105F9F07D
:102DD000281B390B2430310580F48A819B816115D1
:102DE000710521F0FB019383828304C09093CA058F
:102DF0008093C905FE01329644C0FE01E20FF31F25
:102E00008193919322503109398328833AC02091CC
:102E1000C7053091C805232B41F420910201309160
:102E200003013093C8052093C7052091000130911C
:102E300001012115310541F42DB73EB74091040140
:102E400050910501241B350BE091C705F091C80591
:102E5000E217F307A0F42E1B3F0B2817390778F071
:102E6000AC014E5F5F4F2417350748F04E0F5F1FD0
:102E70005093C8054093C7058193919302C0E0E049
:102E8000F0E0CF01DF91CF911F910F910895CF9383
:102E9000DF93009709F481C0FC01329713821282FC
:102EA000A091C905B091CA05109781F420813181A4
:102EB000820F931F2091C7053091C8052817390745
:102EC00051F5F093C805E093C70567C0ED0120E018
:102ED00030E0CE17DF0740F44A815B819E01411547
:102EE0005105F1F0EA01F5CFD383C28340815181CE
:102EF000840F951FC817D90759F488819981840FC9
:102F0000951F0296918380838A819B81938382831C
:102F10002115310529F4F093CA05E093C9053DC098
:102F2000E901FB83EA8349915991C40FD51FEC173E
:102F3000FD0761F480819181840F951F0296E9015C
:102F400099838883828193819B838A83E0E0F0E088
:102F500012968D919C911397009719F0FD01DC0159
:102F6000F7CF8D919C9111979D012E5F3F4F820F5E
:102F7000931F2091C7053091C8052817390769F4B8
:102F8000309729F41092CA051092C90502C0138225
:102F90001282B093C805A093C705DF91CF91089521
:102FA000A0E0B0E0E6EDF7E10C941515EC01009718
:102FB00021F4CB010E94AF16B4C0FC01E60FF71F4D
:102FC0009C0122503109E217F30708F4A8C0D90187
:102FD0000D911C91119706171707B0F005301105D8
:102FE00008F49BC0C80104978617970708F495C09A
:102FF00002501109061B170B019311936D937C93DB
:10300000CF010E94471789C05B01A01AB10A4C0189
:10301000800E911EA091C905B091CA05612C712C3A
:10302000E12CF12C109709F446C08D919C911197D9
:10303000A815B905B1F56C0142E0C40ED11CCA1443
:10304000DB0478F14C018A189B08640142E0C40E4D
:10305000D11C1296BC9012971396AC91B5E0CB168A
:10306000D10440F0B282A38391828082D9016D9312
:103070007C9309C00E5F1F4F800F911FF901918350
:103080008083EB2DFA2FE114F10431F0D701139670
:10309000FC93EE93129741C0F093CA05E093C905E3
:1030A0003CC06816790608F43C017D0112960D902B
:1030B000BC91A02DB7CF8091C7059091C805881607
:1030C0009906E1F466167706C8F4809100019091A4
:1030D0000101009741F48DB79EB7409104015091D2
:1030E0000501841B950BE817F907C8F4F093C80590
:1030F000E093C705F901718360830FC0CB010E9483
:10310000AF167C01009759F0A801BE010E949618E5
:10311000CE010E944717C70104C0CE0102C080E063
:1031200090E0CDB7DEB7EEE00C943115FB01DC0189
:1031300002C001900D9241505040D8F70895FB0114
:10314000DC018D91019080190110D9F3990B08953C
:10315000FB01DC0101900D920020E1F70895FB01D5
:10316000DC014150504048F001900D920020C9F719
:1031700001C01D9241505040E0F7089510E0CBE8A7
:10318000D0E004C0FE010E94A1162196CC38D107E0
:06319000C9F7F894FFCF1F
:103196000000CB0520000000400014005400000091
:1031A6000000F601B6002F03F50146025C02DD01C0
:1031B600000000004901B600E00096011101EF0091
:1031C600030100000000FF02D2022F03F501CA022C
:1031D600B602A70200000000F608B6002F032E0371
:1031E6000D0A006D74004D6F62696C652054726142
:1031F600636B6572002020202053797374656D20FF
:1032060020202020200046696E64696E67204D6F7D
:1032160064756C652E2E004F4B004D6F64756C65A2
:1032260020436F6E6E65637465642E2E0044697369
:1032360061626C696E67204543484F0041544530D2
:10324600004563686F204F46460046696E64696EA6
:1032560067204E6574776F726B2E2E0041542B4398
:1032660050494E3F002B4350494E3A205245414467
:1032760059004E6574776F726B20466F756E642EBB
:103286002E0041542B434E4D493D322C322C302CCE
:10329600302C300047505320496E697469616C695F
:1032A6007A696E670020204E6F2047505320526186
:1032B6006E67652020004750532052616E67652077
:1032C600466F756E640047505320697320526561DE
:1032D60064790053797374656D2052656164790071
:1032E6004750524D4300474E524D430047504747C3
:1032F6004100474E4747410041542B434D47463D09
:10330600310041542B434D47533D222B363238353D
:1033160038303931323534363522004D6F62696CBA
:103326006520547261636B657220416C6572743AF4
:1033360000596F757220446576696365204375721E
:1033460072656E74204C6F636174696F6E20697369
:103356003A004C617469747564653A20000A204C21
:103366006F6E6769747564653A200068747470736B
:103376003A2F2F7777772E676F6F676C652E636F9F
:103386006D2F6D6170732F40002C31347A004D65BE
:1033960073736167652053656E74006E616E0069B4
:0833A6006E66006F7666000000
:107E0000112484B714BE81FFF0D085E080938100F7
:107E100082E08093C00088E18093C10086E0809377
:107E2000C20080E18093C4008EE0C9D0259A86E02C
:107E300020E33CEF91E0309385002093840096BBD3
:107E4000B09BFECF1D9AA8958150A9F7CC24DD24C4
:107E500088248394B5E0AB2EA1E19A2EF3E0BF2EE7
:107E6000A2D0813461F49FD0082FAFD0023811F036
:107E7000013811F484E001C083E08DD089C08234E0
:107E800011F484E103C0853419F485E0A6D080C0E4
:107E9000853579F488D0E82EFF2485D0082F10E0AE
:107EA000102F00270E291F29000F111F8ED06801E7
:107EB0006FC0863521F484E090D080E0DECF843638
:107EC00009F040C070D06FD0082F6DD080E0C81688
:107ED00080E7D80618F4F601B7BEE895C0E0D1E017
:107EE00062D089930C17E1F7F0E0CF16F0E7DF06D8
:107EF00018F0F601B7BEE89568D007B600FCFDCFD4
:107F0000A601A0E0B1E02C9130E011968C91119780
:107F100090E0982F8827822B932B1296FA010C0160
:107F200087BEE89511244E5F5F4FF1E0A038BF0790
:107F300051F7F601A7BEE89507B600FCFDCF97BE46
:107F4000E89526C08437B1F42ED02DD0F82E2BD052
:107F50003CD0F601EF2C8F010F5F1F4F84911BD097
:107F6000EA94F801C1F70894C11CD11CFA94CF0C13
:107F7000D11C0EC0853739F428D08EE10CD085E9AC
:107F80000AD08FE07ACF813511F488E018D01DD067
:107F900080E101D065CF982F8091C00085FFFCCF94
:107FA0009093C60008958091C00087FFFCCF809118
:107FB000C00084FD01C0A8958091C6000895E0E648
:107FC000F0E098E1908380830895EDDF803219F02E
:107FD00088E0F5DFFFCF84E1DECF1F93182FE3DFCA
:107FE0001150E9F7F2DF1F91089580E0E8DFEE27F6
:047FF000FF270994CA
:027FFE00040479
:0400000300007E007B
:00000001FF
